:10087000206C63642038626974206D6574686F64ED
:10088000200064657369676E2062792052562000EB
:10085000E4FDFCC3ED9FEC9E5015E4FBFA0BBB00DE
:0F086000010ABA04F8BBFBF50DBD00010C80E4E2
:01086F002266
:0A08FA00E4F580F590F5A0F5B022BA
:0F08C200D287C2A7D2A6C2A5D2A530870280F7DF
:0108D1002204
:0E08D2001208C28F80D2A5C2A7C2A6C2A5225C
:0E08E0001208C28F80D2A5D2A7C2A6C2A5223E
:100890007F381208D27F0F1208D27F061208D27F4B
:0908A000011208D27F1C0208D2EB
:10082B008B088A09890AAB08AA09A90A1208A960C8
:10083B0013050AE50A7002050914F91208A9FF123B
:05084B0008E080E2223C
:100800001208FA1208907F011208D27BFF7A087949
:100810007012082B7FC01208D27BFF7A08798212EF
:0B082000082B7F647E0012085080DB74
:030000000208EE05
:0C08EE00787FE4F6D8FD75810A0208004E
:1008A900BB010689828A83E0225002E722BBFE024D
:0908B900E32289828A83E4932280
:00000001FF
